{
  "_format": "hh-sol-artifact-1",
  "contractName": "TitanSentara",
  "sourceName": "contracts/TitanSentara.sol",
  "abi": [
    {
      "inputs": [],
      "stateMutability": "nonpayable",
      "type": "constructor"
    },
    {
      "anonymous": false,
      "inputs": [
        {
          "indexed": true,
          "internalType": "address",
          "name": "admin",
          "type": "address"
        }
      ],
      "name": "AdminAdded",
      "type": "event"
    },
    {
      "anonymous": false,
      "inputs": [
        {
          "indexed": true,
          "internalType": "address",
          "name": "admin",
          "type": "address"
        }
      ],
      "name": "AdminRemoved",
      "type": "event"
    },
    {
      "anonymous": false,
      "inputs": [
        {
          "indexed": true,
          "internalType": "uint256",
          "name": "candidateId",
          "type": "uint256"
        },
        {
          "indexed": false,
          "internalType": "string",
          "name": "name",
          "type": "string"
        },
        {
          "indexed": false,
          "internalType": "uint256",
          "name": "positionId",
          "type": "uint256"
        }
      ],
      "name": "CandidateAdded",
      "type": "event"
    },
    {
      "anonymous": false,
      "inputs": [
        {
          "indexed": true,
          "internalType": "uint256",
          "name": "positionId",
          "type": "uint256"
        },
        {
          "indexed": false,
          "internalType": "string",
          "name": "name",
          "type": "string"
        }
      ],
      "name": "PositionAdded",
      "type": "event"
    },
    {
      "anonymous": false,
      "inputs": [
        {
          "indexed": true,
          "internalType": "address",
          "name": "voter",
          "type": "address"
        },
        {
          "indexed": false,
          "internalType": "uint256",
          "name": "positionId",
          "type": "uint256"
        },
        {
          "indexed": false,
          "internalType": "uint256",
          "name": "candidateId",
          "type": "uint256"
        },
        {
          "indexed": false,
          "internalType": "uint256",
          "name": "quantity",
          "type": "uint256"
        }
      ],
      "name": "VotesCast",
      "type": "event"
    },
    {
      "anonymous": false,
      "inputs": [
        {
          "indexed": false,
          "internalType": "uint256",
          "name": "voteCost",
          "type": "uint256"
        },
        {
          "indexed": false,
          "internalType": "uint256",
          "name": "startTime",
          "type": "uint256"
        },
        {
          "indexed": false,
          "internalType": "uint256",
          "name": "endTime",
          "type": "uint256"
        }
      ],
      "name": "VotingParametersSet",
      "type": "event"
    },
    {
      "inputs": [
        {
          "internalType": "address",
          "name": "newAdmin",
          "type": "address"
        }
      ],
      "name": "addAdmin",
      "outputs": [],
      "stateMutability": "nonpayable",
      "type": "function"
    },
    {
      "inputs": [
        {
          "internalType": "string",
          "name": "name",
          "type": "string"
        },
        {
          "internalType": "uint256",
          "name": "positionId",
          "type": "uint256"
        }
      ],
      "name": "addCandidate",
      "outputs": [],
      "stateMutability": "nonpayable",
      "type": "function"
    },
    {
      "inputs": [
        {
          "internalType": "string",
          "name": "name",
          "type": "string"
        }
      ],
      "name": "addPosition",
      "outputs": [],
      "stateMutability": "nonpayable",
      "type": "function"
    },
    {
      "inputs": [],
      "name": "admin",
      "outputs": [
        {
          "internalType": "address",
          "name": "",
          "type": "address"
        }
      ],
      "stateMutability": "view",
      "type": "function"
    },
    {
      "inputs": [],
      "name": "adminCount",
      "outputs": [
        {
          "internalType": "uint256",
          "name": "",
          "type": "uint256"
        }
      ],
      "stateMutability": "view",
      "type": "function"
    },
    {
      "inputs": [
        {
          "internalType": "address",
          "name": "",
          "type": "address"
        }
      ],
      "name": "admins",
      "outputs": [
        {
          "internalType": "bool",
          "name": "",
          "type": "bool"
        }
      ],
      "stateMutability": "view",
      "type": "function"
    },
    {
      "inputs": [
        {
          "internalType": "uint256",
          "name": "",
          "type": "uint256"
        }
      ],
      "name": "candidates",
      "outputs": [
        {
          "internalType": "uint256",
          "name": "id",
          "type": "uint256"
        },
        {
          "internalType": "string",
          "name": "name",
          "type": "string"
        },
        {
          "internalType": "uint256",
          "name": "positionId",
          "type": "uint256"
        },
        {
          "internalType": "uint256",
          "name": "voteCount",
          "type": "uint256"
        },
        {
          "internalType": "bool",
          "name": "exists",
          "type": "bool"
        }
      ],
      "stateMutability": "view",
      "type": "function"
    },
    {
      "inputs": [
        {
          "internalType": "uint256",
          "name": "positionId",
          "type": "uint256"
        },
        {
          "internalType": "uint256",
          "name": "candidateId",
          "type": "uint256"
        },
        {
          "internalType": "uint256",
          "name": "quantity",
          "type": "uint256"
        }
      ],
      "name": "castVotes",
      "outputs": [],
      "stateMutability": "payable",
      "type": "function"
    },
    {
      "inputs": [],
      "name": "claimAdmin",
      "outputs": [],
      "stateMutability": "nonpayable",
      "type": "function"
    },
    {
      "inputs": [],
      "name": "endVoting",
      "outputs": [],
      "stateMutability": "nonpayable",
      "type": "function"
    },
    {
      "inputs": [
        {
          "internalType": "uint256",
          "name": "positionId",
          "type": "uint256"
        }
      ],
      "name": "getCandidatesByPosition",
      "outputs": [
        {
          "components": [
            {
              "internalType": "uint256",
              "name": "id",
              "type": "uint256"
            },
            {
              "internalType": "string",
              "name": "name",
              "type": "string"
            },
            {
              "internalType": "uint256",
              "name": "positionId",
              "type": "uint256"
            },
            {
              "internalType": "uint256",
              "name": "voteCount",
              "type": "uint256"
            },
            {
              "internalType": "bool",
              "name": "exists",
              "type": "bool"
            }
          ],
          "internalType": "struct TitanSentara.Candidate[]",
          "name": "",
          "type": "tuple[]"
        }
      ],
      "stateMutability": "view",
      "type": "function"
    },
    {
      "inputs": [
        {
          "internalType": "uint256",
          "name": "",
          "type": "uint256"
        },
        {
          "internalType": "uint256",
          "name": "",
          "type": "uint256"
        }
      ],
      "name": "positionCandidates",
      "outputs": [
        {
          "internalType": "uint256",
          "name": "",
          "type": "uint256"
        }
      ],
      "stateMutability": "view",
      "type": "function"
    },
    {
      "inputs": [
        {
          "internalType": "uint256",
          "name": "",
          "type": "uint256"
        }
      ],
      "name": "positions",
      "outputs": [
        {
          "internalType": "uint256",
          "name": "id",
          "type": "uint256"
        },
        {
          "internalType": "string",
          "name": "name",
          "type": "string"
        },
        {
          "internalType": "bool",
          "name": "exists",
          "type": "bool"
        }
      ],
      "stateMutability": "view",
      "type": "function"
    },
    {
      "inputs": [
        {
          "internalType": "address",
          "name": "adminToRemove",
          "type": "address"
        }
      ],
      "name": "removeAdmin",
      "outputs": [],
      "stateMutability": "nonpayable",
      "type": "function"
    },
    {
      "inputs": [
        {
          "internalType": "uint256",
          "name": "_voteCost",
          "type": "uint256"
        },
        {
          "internalType": "uint256",
          "name": "_startTime",
          "type": "uint256"
        },
        {
          "internalType": "uint256",
          "name": "_endTime",
          "type": "uint256"
        }
      ],
      "name": "setVotingParameters",
      "outputs": [],
      "stateMutability": "nonpayable",
      "type": "function"
    },
    {
      "inputs": [],
      "name": "startVoting",
      "outputs": [],
      "stateMutability": "nonpayable",
      "type": "function"
    },
    {
      "inputs": [],
      "name": "voteCost",
      "outputs": [
        {
          "internalType": "uint256",
          "name": "",
          "type": "uint256"
        }
      ],
      "stateMutability": "view",
      "type": "function"
    },
    {
      "inputs": [],
      "name": "voteEndTime",
      "outputs": [
        {
          "internalType": "uint256",
          "name": "",
          "type": "uint256"
        }
      ],
      "stateMutability": "view",
      "type": "function"
    },
    {
      "inputs": [],
      "name": "voteStartTime",
      "outputs": [
        {
          "internalType": "uint256",
          "name": "",
          "type": "uint256"
        }
      ],
      "stateMutability": "view",
      "type": "function"
    },
    {
      "inputs": [],
      "name": "votingActive",
      "outputs": [
        {
          "internalType": "bool",
          "name": "",
          "type": "bool"
        }
      ],
      "stateMutability": "view",
      "type": "function"
    }
  ],
  "bytecode": "0x6080604052348015600f57600080fd5b50336000806101000a81548173ffffffffffffffffffffffffffffffffffffffff021916908373ffffffffffffffffffffffffffffffffffffffff1602179055506001600960003373ffffffffffffffffffffffffffffffffffffffff1673ffffffffffffffffffffffffffffffffffffffff16815260200190815260200160002060006101000a81548160ff0219169083151502179055506001600a81905550612d0a806100bf6000396000f3fe60806040526004361061011f5760003560e01c806370480275116100a0578063c3403ddf11610064578063c3403ddf146103db578063e23cec7b146103f2578063f543a3aa1461041b578063f851a44014610437578063fb9b4cba146104625761011f565b806370480275146102f457806377f50f971461031d57806399fbab88146103345780639e6cb42b14610373578063bdc9d5541461039e5761011f565b806337daf167116100e757806337daf167146101fb578063408e272714610238578063429b62e5146102635780634c1b8ffd146102a0578063555f1860146102cb5761011f565b80631785f53c1461012457806318024acc1461014d5780631ec6b60a146101785780632b7832b31461018f5780633477ee2e146101ba575b600080fd5b34801561013057600080fd5b5061014b600480360381019061014691906119ab565b61048b565b005b34801561015957600080fd5b5061016261070d565b60405161016f91906119f1565b60405180910390f35b34801561018457600080fd5b5061018d610713565b005b34801561019b57600080fd5b506101a46107bc565b6040516101b191906119f1565b60405180910390f35b3480156101c657600080fd5b506101e160048036038101906101dc9190611a38565b6107c2565b6040516101f2959493929190611b10565b60405180910390f35b34801561020757600080fd5b50610222600480360381019061021d9190611a38565b61088d565b60405161022f9190611d0a565b60405180910390f35b34801561024457600080fd5b5061024d610ab0565b60405161025a9190611d2c565b60405180910390f35b34801561026f57600080fd5b5061028a600480360381019061028591906119ab565b610ac3565b6040516102979190611d2c565b60405180910390f35b3480156102ac57600080fd5b506102b5610ae3565b6040516102c291906119f1565b60405180910390f35b3480156102d757600080fd5b506102f260048036038101906102ed9190611d47565b610ae9565b005b34801561030057600080fd5b5061031b600480360381019061031691906119ab565b610c0c565b005b34801561032957600080fd5b50610332610e4a565b005b34801561034057600080fd5b5061035b60048036038101906103569190611a38565b610f1b565b60405161036a93929190611d9a565b60405180910390f35b34801561037f57600080fd5b50610388610fda565b60405161039591906119f1565b60405180910390f35b3480156103aa57600080fd5b506103c560048036038101906103c09190611dd8565b610fe0565b6040516103d291906119f1565b60405180910390f35b3480156103e757600080fd5b506103f0611011565b005b3480156103fe57600080fd5b5061041960048036038101906104149190611f4d565b6110b9565b005b61043560048036038101906104309190611d47565b611364565b005b34801561044357600080fd5b5061044c6115ec565b6040516104599190611fb8565b60405180910390f35b34801561046e57600080fd5b5061048960048036038101906104849190611fd3565b611610565b005b600960003373ffffffffffffffffffffffffffffffffffffffff1673ffffffffffffffffffffffffffffffffffffffff16815260200190815260200160002060009054906101000a900460ff16610517576040517f08c379a000000000000000000000000000000000000000000000000000000000815260040161050e9061208e565b60405180910390fd5b600073ffffffffffffffffffffffffffffffffffffffff168173ffffffffffffffffffffffffffffffffffffffff1603610586576040517f08c379a000000000000000000000000000000000000000000000000000000000815260040161057d906120fa565b60405180910390fd5b600960008273ffffffffffffffffffffffffffffffffffffffff1673ffffffffffffffffffffffffffffffffffffffff16815260200190815260200160002060009054906101000a900460ff16610612576040517f08c379a000000000000000000000000000000000000000000000000000000000815260040161060990612166565b60405180910390fd5b6001600a5411610657576040517f08c379a000000000000000000000000000000000000000000000000000000000815260040161064e906121d2565b60405180910390fd5b6000600960008373ffffffffffffffffffffffffffffffffffffffff1673ffffffffffffffffffffffffffffffffffffffff16815260200190815260200160002060006101000a81548160ff021916908315150217905550600a60008154809291906106c290612221565b91905055508073ffffffffffffffffffffffffffffffffffffffff167fa3b62bc36326052d97ea62d63c3d60308ed4c3ea8ac079dd8499f1e9c4f80c0f60405160405180910390a250565b60075481565b600960003373ffffffffffffffffffffffffffffffffffffffff1673ffffffffffffffffffffffffffffffffffffffff16815260200190815260200160002060009054906101000a900460ff1661079f576040517f08c379a00000000000000000000000000000000000000000000000000000000081526004016107969061208e565b60405180910390fd5b6001600060146101000a81548160ff021916908315150217905550565b600a5481565b60046020528060005260406000206000915090508060000154908060010180546107eb90612279565b80601f016020809104026020016040519081016040528092919081815260200182805461081790612279565b80156108645780601f1061083957610100808354040283529160200191610864565b820191906000526020600020905b81548152906001019060200180831161084757829003601f168201915b5050505050908060020154908060030154908060040160009054906101000a900460ff16905085565b60606003600083815260200190815260200160002060020160009054906101000a900460ff166108f2576040517f08c379a00000000000000000000000000000000000000000000000000000000081526004016108e9906122f6565b60405180910390fd5b60006005600084815260200190815260200160002090506000818054905067ffffffffffffffff81111561092957610928611e22565b5b60405190808252806020026020018201604052801561096257816020015b61094f611908565b8152602001906001900390816109475790505b50905060005b8280549050811015610aa5576004600084838154811061098b5761098a612316565b5b906000526020600020015481526020019081526020016000206040518060a0016040529081600082015481526020016001820180546109c990612279565b80601f01602080910402602001604051908101604052809291908181526020018280546109f590612279565b8015610a425780601f10610a1757610100808354040283529160200191610a42565b820191906000526020600020905b815481529060010190602001808311610a2557829003601f168201915b5050505050815260200160028201548152602001600382015481526020016004820160009054906101000a900460ff161515151581525050828281518110610a8d57610a8c612316565b5b60200260200101819052508080600101915050610968565b508092505050919050565b600060149054906101000a900460ff1681565b60096020528060005260406000206000915054906101000a900460ff1681565b60065481565b600960003373ffffffffffffffffffffffffffffffffffffffff1673ffffffffffffffffffffffffffffffffffffffff16815260200190815260200160002060009054906101000a900460ff16610b75576040517f08c379a0000000000000000000000000000000000000000000000000000000008152600401610b6c9061208e565b60405180910390fd5b818111610bb7576040517f08c379a0000000000000000000000000000000000000000000000000000000008152600401610bae90612391565b60405180910390fd5b8260068190555081600781905550806008819055507f4ac127b443e69726a9b66b71875d1099895d8b3dfc4859d61d72fb4682cc7c30838383604051610bff939291906123b1565b60405180910390a1505050565b600960003373ffffffffffffffffffffffffffffffffffffffff1673ffffffffffffffffffffffffffffffffffffffff16815260200190815260200160002060009054906101000a900460ff16610c98576040517f08c379a0000000000000000000000000000000000000000000000000000000008152600401610c8f9061208e565b60405180910390fd5b600073ffffffffffffffffffffffffffffffffffffffff168173ffffffffffffffffffffffffffffffffffffffff1603610d07576040517f08c379a0000000000000000000000000000000000000000000000000000000008152600401610cfe906120fa565b60405180910390fd5b600960008273ffffffffffffffffffffffffffffffffffffffff1673ffffffffffffffffffffffffffffffffffffffff16815260200190815260200160002060009054906101000a900460ff1615610d94576040517f08c379a0000000000000000000000000000000000000000000000000000000008152600401610d8b90612434565b60405180910390fd5b6001600960008373ffffffffffffffffffffffffffffffffffffffff1673ffffffffffffffffffffffffffffffffffffffff16815260200190815260200160002060006101000a81548160ff021916908315150217905550600a6000815480929190610dff90612454565b91905055508073ffffffffffffffffffffffffffffffffffffffff167f44d6d25963f097ad14f29f06854a01f575648a1ef82f30e562ccd3889717e33960405160405180910390a250565b600073ffffffffffffffffffffffffffffffffffffffff1660008054906101000a900473ffffffffffffffffffffffffffffffffffffffff1673ffffffffffffffffffffffffffffffffffffffff1614610ed9576040517f08c379a0000000000000000000000000000000000000000000000000000000008152600401610ed0906124e8565b60405180910390fd5b336000806101000a81548173ffffffffffffffffffffffffffffffffffffffff021916908373ffffffffffffffffffffffffffffffffffffffff160217905550565b6003602052806000526040600020600091509050806000015490806001018054610f4490612279565b80601f0160208091040260200160405190810160405280929190818152602001828054610f7090612279565b8015610fbd5780601f10610f9257610100808354040283529160200191610fbd565b820191906000526020600020905b815481529060010190602001808311610fa057829003601f168201915b5050505050908060020160009054906101000a900460ff16905083565b60085481565b60056020528160005260406000208181548110610ffc57600080fd5b90600052602060002001600091509150505481565b600960003373ffffffffffffffffffffffffffffffffffffffff1673ffffffffffffffffffffffffffffffffffffffff16815260200190815260200160002060009054906101000a900460ff1661109d576040517f08c379a00000000000000000000000000000000000000000000000000000000081526004016110949061208e565b60405180910390fd5b60008060146101000a81548160ff021916908315150217905550565b600960003373ffffffffffffffffffffffffffffffffffffffff1673ffffffffffffffffffffffffffffffffffffffff16815260200190815260200160002060009054906101000a900460ff16611145576040517f08c379a000000000000000000000000000000000000000000000000000000000815260040161113c9061208e565b60405180910390fd5b6003600082815260200190815260200160002060020160009054906101000a900460ff166111a8576040517f08c379a000000000000000000000000000000000000000000000000000000000815260040161119f906122f6565b60405180910390fd5b6002825110156111ed576040517f08c379a00000000000000000000000000000000000000000000000000000000081526004016111e490612554565b60405180910390fd5b6111f782826117f6565b15611237576040517f08c379a000000000000000000000000000000000000000000000000000000000815260040161122e906125c0565b60405180910390fd5b6002600081548092919061124a90612454565b91905055506040518060a00160405280600254815260200183815260200182815260200160008152602001600115158152506004600060025481526020019081526020016000206000820151816000015560208201518160010190816112b0919061278c565b50604082015181600201556060820151816003015560808201518160040160006101000a81548160ff0219169083151502179055509050506005600082815260200190815260200160002060025490806001815401808255809150506001900390600052602060002001600090919091909150556002547fc0a81c9aad7f882e7dd72db314924227026255cc5ad0164435df572dec8c804d838360405161135892919061285e565b60405180910390a25050565b600754421015801561137857506008544211155b6113b7576040517f08c379a00000000000000000000000000000000000000000000000000000000081526004016113ae906128da565b60405180910390fd5b6003600084815260200190815260200160002060020160009054906101000a900460ff1661141a576040517f08c379a0000000000000000000000000000000000000000000000000000000008152600401611411906122f6565b60405180910390fd5b6004600083815260200190815260200160002060040160009054906101000a900460ff1661147d576040517f08c379a000000000000000000000000000000000000000000000000000000000815260040161147490612946565b60405180910390fd5b826004600084815260200190815260200160002060020154146114d5576040517f08c379a00000000000000000000000000000000000000000000000000000000081526004016114cc906129b2565b60405180910390fd5b60008111611518576040517f08c379a000000000000000000000000000000000000000000000000000000000815260040161150f90612a1e565b60405180910390fd5b806006546115269190612a3e565b341015611568576040517f08c379a000000000000000000000000000000000000000000000000000000000815260040161155f90612acc565b60405180910390fd5b8060046000848152602001908152602001600020600301600082825461158e9190612aec565b925050819055503373ffffffffffffffffffffffffffffffffffffffff167fa6f935e041d65659bc9b3358d5f55fdcf8677aaec4ed05ffcee85ab8f253b87e8484846040516115df939291906123b1565b60405180910390a2505050565b60008054906101000a900473ffffffffffffffffffffffffffffffffffffffff1681565b600960003373ffffffffffffffffffffffffffffffffffffffff1673ffffffffffffffffffffffffffffffffffffffff16815260200190815260200160002060009054906101000a900460ff1661169c576040517f08c379a00000000000000000000000000000000000000000000000000000000081526004016116939061208e565b60405180910390fd5b60008151116116e0576040517f08c379a00000000000000000000000000000000000000000000000000000000081526004016116d790612b6c565b60405180910390fd5b6116e981611897565b15611729576040517f08c379a000000000000000000000000000000000000000000000000000000000815260040161172090612bd8565b60405180910390fd5b6001600081548092919061173c90612454565b91905055506040518060600160405280600154815260200182815260200160011515815250600360006001548152602001908152602001600020600082015181600001556020820151816001019081611795919061278c565b5060408201518160020160006101000a81548160ff0219169083151502179055509050506001547f936c61804de9fb725572fcb85669c297d85ea46fe333de2933c1b3c6aef24848826040516117eb9190612bf8565b60405180910390a250565b60008060056000848152602001908152602001600020905060005b818054905081101561188a5784805190602001206004600084848154811061183c5761183b612316565b5b906000526020600020015481526020019081526020016000206001016040516118659190612cbd565b60405180910390200361187d57600192505050611891565b8080600101915050611811565b5060009150505b92915050565b600080600190505b60015481116118fd578280519060200120600360008381526020019081526020016000206001016040516118d39190612cbd565b6040518091039020036118ea576001915050611903565b80806118f590612454565b91505061189f565b50600090505b919050565b6040518060a00160405280600081526020016060815260200160008152602001600081526020016000151581525090565b6000604051905090565b600080fd5b600080fd5b600073ffffffffffffffffffffffffffffffffffffffff82169050919050565b60006119788261194d565b9050919050565b6119888161196d565b811461199357600080fd5b50565b6000813590506119a58161197f565b92915050565b6000602082840312156119c1576119c0611943565b5b60006119cf84828501611996565b91505092915050565b6000819050919050565b6119eb816119d8565b82525050565b6000602082019050611a0660008301846119e2565b92915050565b611a15816119d8565b8114611a2057600080fd5b50565b600081359050611a3281611a0c565b92915050565b600060208284031215611a4e57611a4d611943565b5b6000611a5c84828501611a23565b91505092915050565b600081519050919050565b600082825260208201905092915050565b60005b83811015611a9f578082015181840152602081019050611a84565b60008484015250505050565b6000601f19601f8301169050919050565b6000611ac782611a65565b611ad18185611a70565b9350611ae1818560208601611a81565b611aea81611aab565b840191505092915050565b60008115159050919050565b611b0a81611af5565b82525050565b600060a082019050611b2560008301886119e2565b8181036020830152611b378187611abc565b9050611b4660408301866119e2565b611b5360608301856119e2565b611b606080830184611b01565b9695505050505050565b600081519050919050565b600082825260208201905092915050565b6000819050602082019050919050565b611b9f816119d8565b82525050565b600082825260208201905092915050565b6000611bc182611a65565b611bcb8185611ba5565b9350611bdb818560208601611a81565b611be481611aab565b840191505092915050565b611bf881611af5565b82525050565b600060a083016000830151611c166000860182611b96565b5060208301518482036020860152611c2e8282611bb6565b9150506040830151611c436040860182611b96565b506060830151611c566060860182611b96565b506080830151611c696080860182611bef565b508091505092915050565b6000611c808383611bfe565b905092915050565b6000602082019050919050565b6000611ca082611b6a565b611caa8185611b75565b935083602082028501611cbc85611b86565b8060005b85811015611cf85784840389528151611cd98582611c74565b9450611ce483611c88565b925060208a01995050600181019050611cc0565b50829750879550505050505092915050565b60006020820190508181036000830152611d248184611c95565b905092915050565b6000602082019050611d416000830184611b01565b92915050565b600080600060608486031215611d6057611d5f611943565b5b6000611d6e86828701611a23565b9350506020611d7f86828701611a23565b9250506040611d9086828701611a23565b9150509250925092565b6000606082019050611daf60008301866119e2565b8181036020830152611dc18185611abc565b9050611dd06040830184611b01565b949350505050565b60008060408385031215611def57611dee611943565b5b6000611dfd85828601611a23565b9250506020611e0e85828601611a23565b9150509250929050565b600080fd5b600080fd5b7f4e487b7100000000000000000000000000000000000000000000000000000000600052604160045260246000fd5b611e5a82611aab565b810181811067ffffffffffffffff82111715611e7957611e78611e22565b5b80604052505050565b6000611e8c611939565b9050611e988282611e51565b919050565b600067ffffffffffffffff821115611eb857611eb7611e22565b5b611ec182611aab565b9050602081019050919050565b82818337600083830152505050565b6000611ef0611eeb84611e9d565b611e82565b905082815260208101848484011115611f0c57611f0b611e1d565b5b611f17848285611ece565b509392505050565b600082601f830112611f3457611f33611e18565b5b8135611f44848260208601611edd565b91505092915050565b60008060408385031215611f6457611f63611943565b5b600083013567ffffffffffffffff811115611f8257611f81611948565b5b611f8e85828601611f1f565b9250506020611f9f85828601611a23565b9150509250929050565b611fb28161196d565b82525050565b6000602082019050611fcd6000830184611fa9565b92915050565b600060208284031215611fe957611fe8611943565b5b600082013567ffffffffffffffff81111561200757612006611948565b5b61201384828501611f1f565b91505092915050565b7f4f6e6c792061646d696e2063616e20706572666f726d2074686973206163746960008201527f6f6e000000000000000000000000000000000000000000000000000000000000602082015250565b6000612078602283611a70565b91506120838261201c565b604082019050919050565b600060208201905081810360008301526120a78161206b565b9050919050565b7f496e76616c696420616464726573730000000000000000000000000000000000600082015250565b60006120e4600f83611a70565b91506120ef826120ae565b602082019050919050565b60006020820190508181036000830152612113816120d7565b9050919050565b7f4e6f7420616e2061646d696e0000000000000000000000000000000000000000600082015250565b6000612150600c83611a70565b915061215b8261211a565b602082019050919050565b6000602082019050818103600083015261217f81612143565b9050919050565b7f43616e6e6f742072656d6f7665206c6173742061646d696e0000000000000000600082015250565b60006121bc601883611a70565b91506121c782612186565b602082019050919050565b600060208201905081810360008301526121eb816121af565b9050919050565b7f4e487b7100000000000000000000000000000000000000000000000000000000600052601160045260246000fd5b600061222c826119d8565b91506000820361223f5761223e6121f2565b5b600182039050919050565b7f4e487b7100000000000000000000000000000000000000000000000000000000600052602260045260246000fd5b6000600282049050600182168061229157607f821691505b6020821081036122a4576122a361224a565b5b50919050565b7f496e76616c696420706f736974696f6e00000000000000000000000000000000600082015250565b60006122e0601083611a70565b91506122eb826122aa565b602082019050919050565b6000602082019050818103600083015261230f816122d3565b9050919050565b7f4e487b7100000000000000000000000000000000000000000000000000000000600052603260045260246000fd5b7f496e76616c696420766f74696e672074696d652072616e676500000000000000600082015250565b600061237b601983611a70565b915061238682612345565b602082019050919050565b600060208201905081810360008301526123aa8161236e565b9050919050565b60006060820190506123c660008301866119e2565b6123d360208301856119e2565b6123e060408301846119e2565b949350505050565b7f416c72656164792061646d696e00000000000000000000000000000000000000600082015250565b600061241e600d83611a70565b9150612429826123e8565b602082019050919050565b6000602082019050818103600083015261244d81612411565b9050919050565b600061245f826119d8565b91507fffffffffffffffffffffffffffffffffffffffffffffffffffffffffffffffff8203612491576124906121f2565b5b600182019050919050565b7f41646d696e20616c726561647920736574000000000000000000000000000000600082015250565b60006124d2601183611a70565b91506124dd8261249c565b602082019050919050565b60006020820190508181036000830152612501816124c5565b9050919050565b7f4e616d6520746f6f2073686f7274000000000000000000000000000000000000600082015250565b600061253e600e83611a70565b915061254982612508565b602082019050919050565b6000602082019050818103600083015261256d81612531565b9050919050565b7f43616e6469646174652065786973747300000000000000000000000000000000600082015250565b60006125aa601083611a70565b91506125b582612574565b602082019050919050565b600060208201905081810360008301526125d98161259d565b9050919050565b60008190508160005260206000209050919050565b60006020601f8301049050919050565b600082821b905092915050565b6000600883026126427fffffffffffffffffffffffffffffffffffffffffffffffffffffffffffffffff82612605565b61264c8683612605565b95508019841693508086168417925050509392505050565b6000819050919050565b600061268961268461267f846119d8565b612664565b6119d8565b9050919050565b6000819050919050565b6126a38361266e565b6126b76126af82612690565b848454612612565b825550505050565b600090565b6126cc6126bf565b6126d781848461269a565b505050565b5b818110156126fb576126f06000826126c4565b6001810190506126dd565b5050565b601f82111561274057612711816125e0565b61271a846125f5565b81016020851015612729578190505b61273d612735856125f5565b8301826126dc565b50505b505050565b600082821c905092915050565b600061276360001984600802612745565b1980831691505092915050565b600061277c8383612752565b9150826002028217905092915050565b61279582611a65565b67ffffffffffffffff8111156127ae576127ad611e22565b5b6127b88254612279565b6127c38282856126ff565b600060209050601f8311600181146127f657600084156127e4578287015190505b6127ee8582612770565b865550612856565b601f198416612804866125e0565b60005b8281101561282c57848901518255600182019150602085019450602081019050612807565b868310156128495784890151612845601f891682612752565b8355505b6001600288020188555050505b505050505050565b600060408201905081810360008301526128788185611abc565b905061288760208301846119e2565b9392505050565b7f566f74696e67206973206e6f7420616374697665000000000000000000000000600082015250565b60006128c4601483611a70565b91506128cf8261288e565b602082019050919050565b600060208201905081810360008301526128f3816128b7565b9050919050565b7f496e76616c69642063616e646964617465000000000000000000000000000000600082015250565b6000612930601183611a70565b915061293b826128fa565b602082019050919050565b6000602082019050818103600083015261295f81612923565b9050919050565b7f43616e646964617465206d69736d617463680000000000000000000000000000600082015250565b600061299c601283611a70565b91506129a782612966565b602082019050919050565b600060208201905081810360008301526129cb8161298f565b9050919050565b7f4d696e696d756d203120766f7465000000000000000000000000000000000000600082015250565b6000612a08600e83611a70565b9150612a13826129d2565b602082019050919050565b60006020820190508181036000830152612a37816129fb565b9050919050565b6000612a49826119d8565b9150612a54836119d8565b9250828202612a62816119d8565b91508282048414831517612a7957612a786121f2565b5b5092915050565b7f496e73756666696369656e742066756e64730000000000000000000000000000600082015250565b6000612ab6601283611a70565b9150612ac182612a80565b602082019050919050565b60006020820190508181036000830152612ae581612aa9565b9050919050565b6000612af7826119d8565b9150612b02836119d8565b9250828201905080821115612b1a57612b196121f2565b5b92915050565b7f496e76616c6964206e616d650000000000000000000000000000000000000000600082015250565b6000612b56600c83611a70565b9150612b6182612b20565b602082019050919050565b60006020820190508181036000830152612b8581612b49565b9050919050565b7f506f736974696f6e206578697374730000000000000000000000000000000000600082015250565b6000612bc2600f83611a70565b9150612bcd82612b8c565b602082019050919050565b60006020820190508181036000830152612bf181612bb5565b9050919050565b60006020820190508181036000830152612c128184611abc565b905092915050565b600081905092915050565b60008190508160005260206000209050919050565b60008154612c4781612279565b612c518186612c1a565b94506001821660008114612c6c5760018114612c8157612cb4565b60ff1983168652811515820286019350612cb4565b612c8a85612c25565b60005b83811015612cac57815481890152600182019150602081019050612c8d565b838801955050505b50505092915050565b6000612cc98284612c3a565b91508190509291505056fea2646970667358221220cabef8c8a048246ee34dabf774091c77d3fbb1a1f2057904f2a760323248b76564736f6c634300081c0033",
  "linkReferences": {},
  "deployedLinkReferences": {}
}